S01000004F6E6C696E6531332E737265634B
S11300000C942A000C943F000C943F000C943F0085
S11300100C943F000C943F000C943F000C943F0060
S11300200C943F000C943F000C943F000C943F0050
S11300300C943F000C943F000C943F000C943F0040
S11300400C943F000C943F000C943F000C943F0030
S11300500C943F0011241FBECFE5D8E0DEBFCDBF16
S113006010E0A0E6B0E0E0E9F2E002C005900D92F5
S1130070AA36B107D9F70E94CC000C9446010C941F
S11300800000CF93DF93CDB7DEB72A970FB6F8946D
S1130090DEBF0FBECDBF9AE0E0E6F0E0DE011196D0
S11300A001900D929A95E1F72DEC829F212D112458
S11300B0322F369536953695330F932F990F990F26
S11300C0390F831B382F26952695269590E02BC053
S11300D0E1E0F0E0EC0FFD1FE30FF11D8081880FDC
S11300E08BBB85B3806485BB85B38F7785BBEFE11C
S11300F0FEE43197F1F700C0000085B3806885BB4A
S113010085B38F7B85BBE1E0F0E0EC0FFD1FE20FD0
S1130110F11D8081880F8BBBEFE1FEE43197F1F78D
S113012000C000009F5F993198F22A960FB6F894A8
S1130130DEBF0FBECDBFDF91CF910895CF93C82FFF
S113014001C0C0E08C2F0E944100839903C0839BAF
S1130150FECF16C0849903C0849BFECFC65F8599E9
S11301600CC0859BFECF2FE788E391E021508040AF
S11301709040E1F700C00000CF5FC43610F7E2CF33
S11301802FE789EA93E0215080409040E1F700C0D6
S113019000008C2FCF9108958FEF8ABB87BB84BB5F
S11301A011BA80BB82BB8BBB15BA0F2EF5E5FF2EAF
S11301B0F02D00E0C0E010E0839910C0839BFECFD7
S11301C02FEF30E782E0215030408040E1F700C05B
S11301D000008F2D0E949E00F82ED82F8D2F0E9494
S11301E04100D11101C0DF2D849903C0849BFECF4F
S11301F011E0113081F4859913C0859BFECF9FE7F0
S113020028E331E0915020403040E1F700C0000085
S11302101F5FDF2D06C00111D15081E0082701C006
S1130220DF2D85990EC0859BFECF81E0C82709C0CC
S11302308D2F0E944100859904C0859BFECF81E0EB
S1130240C827C130A9F3DD23D9F0B6CF85B38062C6
S113025085BB8FE72AE136E0815020403040E1F74A
S113026000C0000085B38F7D85BB8FE72AE136E0AF
S1130270815020403040E1F700C000009F5F01C082
S113028090E0953018F3DF2DC1E096CFF894FFCFBE
S10D02903F065B4F666D7D077F6F2C
S9030000FC
