S011000046697265416C61726D2E73726563A0
S11300000C942A000C9403060C942E060C945906A6
S11300100C9447000C9447000C9447000C94470040
S11300200C9447000C9447000C9447000C94470030
S11300300C9447000C9447000C9447000C94470020
S11300400C9447000C9447000C9447000C94470010
S11300500C94470011241FBECFE5D8E0DEBFCDBF0E
S113006010E0A0E6B0E0ECEBFDE002C005900D92DC
S1130070AA3FB107D9F721E0AAEFB0E001C01D9271
S1130080A730B207E1F70E946F030C94DC060C94CE
S113009000000E9496029093DF068093DE06089586
S11300A0609160007091610061157105E1F00E943A
S11300B09602909300018093FF002091FA00309102
S11300C0FB00F901EE0FFF1FE252F94F9183808389
S11300D010926100109260002F5F3F4F3093FB003D
S11300E02093FA00DDCF81E090E09093610080934B
S11300F060008091FA009091FB000997C9F4809107
S1130100FC009091FD00EEEDF6E0219131916F5FDE
S11301107F4F820F931F6A307105B9F70E948306DF
S11301207093FD006093FC001092FB001092FA00A3
S113013008958091FC009091FD000895CF93CCE048
S113014061E08C2F0E946705CF5FC031C9F7CF9162
S11301500895DF92EF92FF920F931F93CF93DF9353
S113016092E6E92E90E0F92ECCE0D0E360E08C2F0B
S11301700E94670500E010E08AE1D82ED00E8D2D94
S11301800E94E60581110FC0F701E00FF11FD08135
S11301908D2D0E94E6058823D9F38FE19EE4019713
S11301A0F1F700C000000F5F1F4F0430110521F765
S11301B061E08C2F0E946705CF5F94E0E90EF11C8B
S11301C0C031A1F68D2FDF91CF911F910F91FF9038
S11301D0EF90DF900895CF93C82F60E081E00E94F4
S11301E06705C4FB662760F983E00E946705C5FBC9
S11301F0662760F984E00E946705C6FB662760F9FC
S113020085E00E9467056C2F661F6627661F86E0DF
S11302100E94670561E082E00E9467058FEC97E029
S11302200197F1F700C0000060E082E00E946705DA
S11302308FEC97E00197F1F700C000006C2F61701C
S113024083E00E946705C1FB662760F984E00E9491
S11302506705C2FB662760F985E00E946705C3FB5A
S1130260662760F986E00E94670561E082E00E94EB
S113027067058FEC97E00197F1F700C0000060E09C
S113028082E00E9467058FEC97E00197F1F700C0C8
S11302900000CF910895CF93C82F61E081E00E94C0
S11302A06705C4FB662760F983E00E946705C5FB08
S11302B0662760F984E00E946705C6FB662760F93B
S11302C085E00E9467056C2F661F6627661F86E01F
S11302D00E94670561E082E00E9467058FEC97E069
S11302E00197F1F700C0000060E082E00E9467051A
S11302F08FEC97E00197F1F700C000006C2F61705C
S113030083E00E946705C1FB662760F984E00E94D0
S11303106705C2FB662760F985E00E946705C3FB99
S1130320662760F986E00E94670561E082E00E942A
S113033067058FEC97E00197F1F700C0000060E0DB
S113034082E00E9467058FEC97E00197F1F700C007
S11303500000CF9108952FE788E391E02150804079
S11303609040E1F700C0000082E00E94EB0088E2C8
S11303700E94EB008CE00E94EB0081E00E94EB0005
S11303808FEC97E00197F1F700C0000086E00C9431
S1130390EB00811102C080E803C0813021F480ECBD
S11303A0860F0C94EB0008950C944B01EF92FF928E
S11303B00F931F93CF937C01C0E087010C0F111D95
S11303C0F8018081882359F0CF3019F480EC0E9421
S11303D0EB00F80180810E944B01CF5FEECFCF91FB
S11303E01F910F91FF90EF900895EF92FF920F935A
S11303F01F93CF938C01462FC72F862F972F20E072
S113040030E0EAE0F0E0009739F02F5F3F4FBF01A2
S11304100E949706CB01F7CF200F311FF9018AE024
S1130420E82EF12CE017F10751F0842F9C2FB7012F
S11304300E949706462FC72F805D8293F3CFF90160
S11304401082CF911F910F91FF90EF900895CF9359
S1130450DF93CDB7DEB764970FB6F894DEBF0FBE57
S1130460CDBF1982CE0101960E94F501CE010196FD
S11304700E94D60164960FB6F894DEBF0FBECDBFBE
S1130480DF91CF910895813069F028F0823089F0AE
S11304908330B1F0089560E088E10E94670560E070
S11304A089E114C060E08AE10E94670560E08BE1A5
S11304B00DC060E08CE10E94670560E08DE106C03C
S11304C060E08EE10E94670560E08FE10C946705AF
S11304D080E00E94430281E00E94430282E00C9487
S11304E04302813069F028F0823089F08330B1F022
S11304F0089561E088E10E94670560E089E114C025
S113050061E08AE10E94670560E08BE10DC061E073
S11305108CE10E94670560E08DE106C061E08EE138
S11305200E94670560E08FE10C94670580E00C94FD
S1130530520487E00E9446049C0127533109A8EE27
S1130540B3E00E94CD0629E933E040E050E00E9488
S1130550AB06C9018A569F4F089563E080E00E946C
S1130560C9018DE990E00E94D60161E080E10C941C
S11305706705CF93DF9361E080E00E94C9018BEAB5
S113058090E00E94D60160E080E10E94670561E08E
S113059081E10E94670560E082E10E946705CAE08C
S11305A0D0E00E9450000E94990090930201809331
S11305B0010162E081E00E94C901809101019091F2
S11305C00201BE010E94830680E090E00E9427029F
S11305D084EF90E00E94D601809101019091020184
S11305E0833C914088F480E00E94430260E081E112
S11305F00E94670560E080E00E94C90180EF90E0FE
S11306000E94D60181E02BC00E94990290930601BA
S11306108093050180399140B0F067E081E00E9449
S1130620C90189EB90E00E94D6010E9499020396C9
S11306309093060180930501BE010E94830680E029
S113064090E00E9427028091050190910601853F68
S1130650914008F4A6CF81E08093FE0080E0DF9112
S1130660CF910895CF93DF9361E080E00E94C901A8
S113067080EC90E00E94D60160E080E10E94670572
S113068060E081E10E94670561E082E10E94670504
S113069067E081E00E94C90189EB90E00E94D601E5
S11306A0CAE0D0E08091FE008823B1F06DE081E0E3
S11306B00E94C9010E9499020396909306018093B7
S11306C00501BE010E94830680E090E00E9427029B
S11306D080E00E947102E6CFDF91CF910895CF931D
S11306E0DF93CDB7DEB728970FB6F894DEBF0FBE01
S11306F0CDBF0E9454050E94AB0166E081E00E94D8
S113070031040E949E000E9468020E9449001D82DA
S11307101E821F8218868091790090917A00A091A0
S11307207B00B0917C0089839A83AB83BC8361E0B6
S113073080E00E94C9018FEC90E00E94D60160E045
S113074081E00E94C90110E000E00E94A90080330A
S113075051F0E5E0F0E0EC0FFD1FE10FF11D8083A7
S11307600E94D4011F5F0E94A9008D3371F780E0BD
S1130770282F30E0E5E0F0E0EC0FFD1FE20FF31F5F
S1130780A1E0B0E0AC0FBD1FA20FB31F40819C914C
S1130790491302C00F5F02C083E000E08F5F843022
S11307A039F7033098F463E081E00E94C9018EEDCB
S11307B090E00E94D6012FEF88E09DE32150804015
S11307C09040E1F700C0000010E0BFCF60E080E09F
S11307D00E94C9018CEE90E00E94D60160E081E0A5
S11307E00E94C90187EF90E00E94D6010AE010E060
S11307F00E9450000E94990090930201809301018D
S113080062E081E00E94C90180910101909102019E
S1130810B8010E94830680E090E00E94270284EFE2
S113082090E00E94D6018091010190910201843FE1
S1130830914028F48091720081110E94AD02809150
S1130840010190910201853F914020F00E94B9027C
S1130850809372008091FE00882351F20E9432033B
S1130860C7CF813041F028F0823039F43E9A3F9A64
S113087004C03E9801C03E9A3F9886B1887F86B9ED
S113088086B16770682B66B9379A089597B1907EE0
S113089097B997B1892B87B9369A3699FECF84B127
S11308A095B108950E9446049C01A8E8B3E10E9412
S11308B0CD06DC01CB012AE0B695A79597958795DF
S11308C02A95D1F70895982F9770869586958695E1
S11308D0613009F44DC020F0623009F496C00895E7
S11308E08130B1F028F0823019F1833089F1089514
S11308F04AB321E030E0B90102C0660F771F9A9530
S1130900E2F7CB01942F982B9ABB9BB3809547C0F9
S113091047B321E030E0B90102C0660F771F9A9512
S1130920E2F7CB01942F982B97BB98B3809549C0DD
S113093044B321E030E0B90102C0660F771F9A95F5
S1130940E2F7CB01942F982B94BB95B380954AC0C2
S113095041B321E030E0B90102C0660F771F9A95D8
S1130960E2F7CB01942F982B91BB92B380954BC0A7
S11309708130C1F028F0823031F18330A9F108953B
S11309804AB321E030E0B90102C0660F771F9A959F
S1130990E2F7CB018095942F98239ABB9BB38923CC
S11309A08BBB089547B321E030E0B90102C0660F64
S11309B0771F9A95E2F7CB018095942F982397BBE4
S11309C098B389234BC044B321E030E0B90102C09D
S11309D0660F771F9A95E2F7CB018095942F9823A1
S11309E094BB95B389234CC041B321E030E0B901F5
S11309F002C0660F771F9A95E2F7CB018095942F7A
S1130A00982391BB92B389234DC08130B9F028F06B
S1130A10823031F18330B1F108954AB321E030E0FE
S1130A20B90102C0660F771F9A95E2F7CB01962FA2
S1130A30909594239ABB9BB3892BB2CF47B321E003
S1130A4030E0B90102C0660F771F9A95E2F7CB0137
S1130A50962F9095942397BB98B3892B88BB0895C0
S1130A6044B321E030E0B90102C0660F771F9A95C4
S1130A70E2F7CB01962F9095942394BB95B3892BE1
S1130A8085BB089541B321E030E0B90102C0660F8F
S1130A90771F9A95E2F7CB01962F9095942391BBFB
S1130AA092B3892B82BB08950F931F93CF930DE7C5
S1130AB010E0C0E0F80161918F018C2F0E94630463
S1130AC0CF5FC032B9F7CF911F910F910895982F3E
S1130AD097708695869586956130C1F5813091F041
S1130AE028F08230D9F0833029F108954BB321E006
S1130AF030E0B90102C0660F771F9A95E2F7CB0187
S1130B00842B38C048B321E030E0B90102C0660F3D
S1130B10771F9A95E2F7CB01842B3AC045B321E0C5
S1130B2030E0B90102C0660F771F9A95E2F7CB0156
S1130B30842B3CC042B321E030E0B90102C0660F0F
S1130B40771F9A95E2F7CB01842B3EC08130A1F048
S1130B5028F08230F9F0833059F108954BB321E045
S1130B6030E0B90102C0660F771F9A95E2F7CB0116
S1130B70809584238BBB089548B321E030E0B9010C
S1130B8002C0660F771F9A95E2F7CB018095842304
S1130B9088BB089545B321E030E0B90102C0660F77
S1130BA0771F9A95E2F7CB018095842385BB08953E
S1130BB042B321E030E0B90102C0660F771F9A9575
S1130BC0E2F7CB018095842382BB0895282F2770F8
S1130BD0869586958695813049F030F0823041F0D3
S1130BE0833079F480B305C089B303C086B301C0F0
S1130BF083B390E002C0959587952A95E2F78170BA
S1130C00089580E0089578941F920F920FB60F9282
S1130C1011242F933F934F935F936F937F938F93FD
S1130C209F93AF93BF93EF93FF93E0917700F0917D
S1130C307800E230F10509F00995FF91EF91BF9139
S1130C40AF919F918F917F916F915F914F913F9160
S1130C502F910F900FBE0F901F90189578941F92AC
S1130C600F920FB60F9211242F933F934F935F93DC
S1130C706F937F938F939F93AF93BF93EF93FF9360
S1130C80E0917500F0917600E230F10509F00995E4
S1130C90FF91EF91BF91AF919F918F917F916F9150
S1130CA05F914F913F912F910F900FBE0F901F9026
S1130CB018951F920F920FB60F9211242F933F9302
S1130CC04F935F936F937F938F939F93AF93BF9350
S1130CD0EF93FF93E0917300F0917400E230F1051B
S1130CE009F00995FF91EF91BF91AF919F918F9179
S1130CF07F916F915F914F913F912F910F900FBE14
S1130D000F901F901895AA1BBB1B51E107C0AA1F87
S1130D10BB1FA617B70710F0A61BB70B881F991F98
S1130D205A95A9F780959095BC01CD01089597FB3C
S1130D30072E16F4009407D077FD09D00E9483068D
S1130D4007FC05D03EF4909581959F4F08957095CA
S1130D5061957F4F0895A1E21A2EAA1BBB1BFD01CA
S1130D600DC0AA1FBB1FEE1FFF1FA217B307E40786
S1130D70F50720F0A21BB30BE40BF50B661F771FDE
S1130D80881F991F1A9469F76095709580959095BE
S1130D909B01AC01BD01CF010895A29FB001B39F97
S1130DA0C001A39F700D811D1124911DB29F700D70
S10F0DB0811D1124911D0895F894FFCFBB
S1130DBC01003738392F3435362A3132332D43304C
S1130DCC3D2B0102000200020031323334010000D9
S1130DDC00000000010202020200000000000000FA
S1130DEC00000000000000020202020202414C4C0E
S1130DFC2049532046696E652020004865617420A3
S1130E0C446574656374656400536D6F6B6525008C
S1130E1C536D6F6B6520446574656374656400453C
S1130E2C6E7465722050617373776F7264002077EF
S1130E3C726F6E6720506173732121002020202073
S10D0E4C20202020202000543D0047
S9030000FC
