S01000004F6E6C696E6531332E737265634B
S11300000C942A000C94F5050C9420060C944B06D1
S11300100C9447000C9447000C9447000C94470040
S11300200C9447000C9447000C9447000C94470030
S11300300C9447000C9447000C9447000C94470020
S11300400C9447000C9447000C9447000C94470010
S11300500C94470011241FBECFE5D8E0DEBFCDBF0E
S113006010E0A0E6B0E0E0EAFDE002C005900D92E9
S1130070A63EB107D9F720E0A6EEB0E001C01D927C
S1130080A33FB207E1F70E9469030C94CE060C94D7
S113009000000E9490029093D3068093D2060895A4
S11300A0609160007091610061157105E1F00E943A
S11300B090029093EC008093EB002091E600309145
S11300C0E700F901EE0FFF1FEE52F94F9183808391
S11300D010926100109260002F5F3F4F3093E70051
S11300E02093E600DDCF81E090E09093610080935F
S11300F060008091E6009091E7000997C9F480912F
S1130100E8009091E900E2EDF6E0219131916F5F12
S11301107F4F820F931F6A307105B9F70E947506ED
S11301207093E9006093E8001092E7001092E600F3
S113013008958091E8009091E9000895CF93CCE070
S113014061E08C2F0E945905CF5FC031C9F7CF9170
S11301500895DF92EF92FF920F931F93CF93DF9353
S113016092E6E92E90E0F92ECCE0D0E360E08C2F0B
S11301700E94590500E010E08AE1D82ED00E8D2DA2
S11301800E94D805811109C0F701E00FF11FD08149
S11301908D2D0E94D8058823D9F30F5F1F4F04309B
S11301A0110551F761E08C2F0E945905CF5F84E05F
S11301B0E80EF11CC031D1F68D2FDF91CF911F9144
S11301C00F91FF90EF90DF900895CF93C82F60E0D8
S11301D081E00E945905C4FB662760F983E00E9410
S11301E05905C5FB662760F984E00E945905C6FBE2
S11301F0662760F985E00E9459056C2F661F662703
S1130200661F86E00E94590561E082E00E9459055C
S11302108FEC97E00197F1F700C0000060E082E006
S11302200E9459058FEC97E00197F1F700C0000098
S11302306C2F617083E00E945905C1FB662760F949
S113024084E00E945905C2FB662760F985E00E949C
S11302505905C3FB662760F986E00E94590561E0F1
S113026082E00E9459058FEC97E00197F1F700C0F6
S1130270000060E082E00E9459058FEC97E001974E
S1130280F1F700C00000CF910895CF93C82F61E02B
S113029081E00E945905C4FB662760F983E00E944F
S11302A05905C5FB662760F984E00E945905C6FB21
S11302B0662760F985E00E9459056C2F661F662742
S11302C0661F86E00E94590561E082E00E9459059C
S11302D08FEC97E00197F1F700C0000060E082E046
S11302E00E9459058FEC97E00197F1F700C00000D8
S11302F06C2F617083E00E945905C1FB662760F989
S113030084E00E945905C2FB662760F985E00E94DB
S11303105905C3FB662760F986E00E94590561E030
S113032082E00E9459058FEC97E00197F1F700C035
S1130330000060E082E00E9459058FEC97E001978D
S1130340F1F700C00000CF9108952FE788E391E012
S1130350215080409040E1F700C0000082E00E94FC
S1130360E50088E20E94E5008CE00E94E50081E05F
S11303700E94E5008FEC97E00197F1F700C00000C0
S113038086E00C94E500811102C080E803C081304E
S113039021F480EC860F0C94E50008950C9445013B
S11303A0EF92FF920F931F93CF937C01C0E08701DC
S11303B00C0F111DF8018081882359F0CF3019F4F6
S11303C080EC0E94E500F80180810E944501CF5F26
S11303D0EECFCF911F910F91FF90EF900895EF9280
S11303E0FF920F931F93CF938C01462FC72F862F15
S11303F0972F20E030E0EAE0F0E0009739F02F5F3B
S11304003F4FBF010E948906CB01F7CF200F311F58
S1130410F9018AE0E82EF12CE017F10751F0842F5E
S11304209C2FB7010E948906462FC72F805D8293B7
S1130430F3CFF9011082CF911F910F91FF90EF90AC
S11304400895CF93DF93CDB7DEB764970FB6F894D2
S1130450DEBF0FBECDBF1982CE0101960E94EF010F
S1130460CE0101960E94D00164960FB6F894DEBFC7
S11304700FBECDBFDF91CF910895813069F028F090
S1130480823089F08330B1F0089560E088E10E9401
S1130490590560E089E114C060E08AE10E945905D1
S11304A060E08BE10DC060E08CE10E94590560E0E2
S11304B08DE106C060E08EE10E94590560E08FE1A5
S11304C00C94590580E00E943D0281E00E943D02A7
S11304D082E00C943D02813069F028F0823089F08A
S11304E08330B1F0089561E088E10E94590560E02D
S11304F089E114C061E08AE10E94590560E08BE162
S11305000DC061E08CE10E94590560E08DE106C0F8
S113051061E08EE10E94590560E08FE10C94590579
S113052080E00C94440487E00E9438049C01275323
S11305303109A8EEB3E00E94BF0629E933E040E0A8
S113054050E00E949D06C9018A569F4F089563E0BA
S113055080E00E94C3018DE990E00E94D00161E037
S113056080E10C945905CF93DF9361E080E00E9411
S1130570C30189EA90E00E94D00160E080E10E941A
S1130580590561E081E10E94590560E082E10E9421
S11305905905CAE0D0E00E9450000E94990090934F
S11305A0EE008093ED0062E081E00E94C30180913F
S11305B0ED009091EE00BE010E94750680E090E08F
S11305C00E9421028BEB90E00E94D0018091ED000B
S11305D09091EE00833C914088F480E00E943D02BB
S11305E060E081E10E94590560E080E00E94C3015F
S11305F087EB90E00E94D00181E02BC00E9493021F
S11306009093F2008093F10080399140B0F067E05C
S113061081E00E94C3018EEB90E00E94D0010E9411
S1130620930203969093F2008093F100BE010E941E
S1130630750680E090E00E9421028091F100909183
S1130640F200853F914008F4A6CF81E08093EA0050
S113065080E0DF91CF910895CF93DF9361E080E054
S11306600E94C30189EA90E00E94D00160E080E129
S11306700E94590560E081E10E94590561E082E130
S11306800E94590567E081E00E94C3018EEB90E06F
S11306900E94D001CAE0D0E08091EA008823B1F042
S11306A06DE081E00E94C3010E949302039690933F
S11306B0F2008093F100BE010E94750680E090E094
S11306C00E94210280E00E946B02E6CFDF91CF916D
S11306D00895CF93DF93CDB7DEB728970FB6F8947C
S11306E0DEBF0FBECDBF0E9446050E94A50166E095
S11306F081E00E9423040E949E000E9462020E94E4
S113070049001D821E821F82188680917900909173
S11307107A00A0917B00B0917C0089839A83AB839B
S1130720BC8361E080E00E94C30185EC90E00E94FC
S1130730D00160E081E00E94C30110E000E00E946B
S1130740A900803351F0E5E0F0E0EC0FFD1FE10F6C
S1130750F11D80830E94CE011F5F0E94A9008D338A
S113076071F780E0282F30E0E5E0F0E0EC0FFD1FAA
S1130770E20FF31FA1E0B0E0AC0FBD1FA20FB31F47
S113078040819C91491302C00F5F02C083E000E0E6
S11307908F5F843039F7033098F463E081E00E947E
S11307A0C30184ED90E00E94D0012FEF88E09DE327
S11307B0215080409040E1F700C0000010E0BFCF1E
S11307C060E081E00E94C30182EE90E00E94D001CB
S11307D00AE010E00E9450000E9499009093EE00FD
S11307E08093ED0062E081E00E94C3018091ED00FE
S11307F09091EE00B8010E94750680E090E00E949E
S113080021028BEB90E00E94D0018091ED00909149
S1130810EE00843F914028F48091720081110E947F
S1130820A7028091ED009091EE00853F914020F069
S11308300E94B302809372008091EA00882351F2EF
S11308400E942C03C7CF813041F028F0823039F464
S11308503E9A3F9A04C03E9801C03E9A3F9886B1A2
S1130860887F86B986B16770682B66B9379A089510
S113087097B1907E97B997B1892B87B9369A3699F3
S1130880FECF84B195B108950E9438049C01A8E874
S1130890B3E10E94BF06DC01CB012AE0B695A7951F
S11308A0979587952A95D1F70895982F97708695EF
S11308B086958695613009F44DC020F0623009F4C4
S11308C096C008958130B1F028F0823019F1833058
S11308D089F108954AB321E030E0B90102C0660FFE
S11308E0771F9A95E2F7CB01942F982B9ABB9BB371
S11308F0809547C047B321E030E0B90102C0660FDC
S1130900771F9A95E2F7CB01942F982B97BB98B356
S1130910809549C044B321E030E0B90102C0660FBC
S1130920771F9A95E2F7CB01942F982B94BB95B33C
S113093080954AC041B321E030E0B90102C0660F9E
S1130940771F9A95E2F7CB01942F982B91BB92B322
S113095080954BC08130C1F028F0823031F1833072
S1130960A9F108954AB321E030E0B90102C0660F4D
S1130970771F9A95E2F7CB018095942F98239ABB21
S11309809BB389238BBB089547B321E030E0B901C1
S113099002C0660F771F9A95E2F7CB018095942FDA
S11309A0982397BB98B389234BC044B321E030E02C
S11309B0B90102C0660F771F9A95E2F7CB018095C3
S11309C0942F982394BB95B389234CC041B321E061
S11309D030E0B90102C0660F771F9A95E2F7CB01A8
S11309E08095942F982391BB92B389234DC0813075
S11309F0B9F028F0823031F18330B1F108954AB36F
S1130A0021E030E0B90102C0660F771F9A95E2F742
S1130A10CB01962F909594239ABB9BB3892BB2CF8D
S1130A2047B321E030E0B90102C0660F771F9A9501
S1130A30E2F7CB01962F9095942397BB98B3892B1B
S1130A4088BB089544B321E030E0B90102C0660FC9
S1130A50771F9A95E2F7CB01962F9095942394BB38
S1130A6095B3892B85BB089541B321E030E0B901EA
S1130A7002C0660F771F9A95E2F7CB01962F9095E7
S1130A80942391BB92B3892B82BB08950F931F9338
S1130A90CF930DE710E0C0E0F80161918F018C2F36
S1130AA00E945504CF5FC032B9F7CF911F910F91C7
S1130AB00895982F97708695869586956130C1F52F
S1130AC0813091F028F08230D9F0833029F10895F3
S1130AD04BB321E030E0B90102C0660F771F9A954D
S1130AE0E2F7CB01842B38C048B321E030E0B901F0
S1130AF002C0660F771F9A95E2F7CB01842B3AC0A8
S1130B0045B321E030E0B90102C0660F771F9A9522
S1130B10E2F7CB01842B3CC042B321E030E0B901C1
S1130B2002C0660F771F9A95E2F7CB01842B3EC073
S1130B308130A1F028F08230F9F0833059F1089522
S1130B404BB321E030E0B90102C0660F771F9A95DC
S1130B50E2F7CB01809584238BBB089548B321E051
S1130B6030E0B90102C0660F771F9A95E2F7CB0116
S1130B708095842388BB089545B321E030E0B90112
S1130B8002C0660F771F9A95E2F7CB018095842304
S1130B9085BB089542B321E030E0B90102C0660F7D
S1130BA0771F9A95E2F7CB018095842382BB089541
S1130BB0282F2770869586958695813049F030F0E8
S1130BC0823041F0833079F480B305C089B303C027
S1130BD086B301C083B390E002C0959587952A95AA
S1130BE0E2F78170089580E0089578941F920F923F
S1130BF00FB60F9211242F933F934F935F936F93EC
S1130C007F938F939F93AF93BF93EF93FF93E09161
S1130C107700F0917800E230F10509F00995FF9131
S1130C20EF91BF91AF919F918F917F916F915F9160
S1130C304F913F912F910F900FBE0F901F901895D9
S1130C4078941F920F920FB60F9211242F933F9313
S1130C504F935F936F937F938F939F93AF93BF93C0
S1130C60EF93FF93E0917500F0917600E230F10587
S1130C7009F00995FF91EF91BF91AF919F918F91E9
S1130C807F916F915F914F913F912F910F900FBE84
S1130C900F901F9018951F920F920FB60F92112468
S1130CA02F933F934F935F936F937F938F939F9370
S1130CB0AF93BF93EF93FF93E0917300F0917400AF
S1130CC0E230F10509F00995FF91EF91BF91AF91E1
S1130CD09F918F917F916F915F914F913F912F9150
S1130CE00F900FBE0F901F901895AA1BBB1B51E1CC
S1130CF007C0AA1FBB1FA617B70710F0A61BB70B88
S1130D00881F991F5A95A9F780959095BC01CD012C
S1130D10089597FB072E16F4009407D077FD09D0A9
S1130D200E94750607FC05D03EF4909581959F4F6F
S1130D300895709561957F4F0895A1E21A2EAA1B1C
S1130D40BB1BFD010DC0AA1FBB1FEE1FFF1FA21777
S1130D50B307E407F50720F0A21BB30BE40BF50B74
S1130D60661F771F881F991F1A9469F760957095FD
S1130D70809590959B01AC01BD01CF010895A29F80
S1130D80B001B39FC001A39F700D811D1124911D5B
S1130D90B29F700D811D1124911D0895F894FFCF09
S1130DA001003738392F3435362A3132332D433068
S1130DB03D2B0102000200020031323334010000F5
S1130DC00000000001020202020000000000000016
S1130DD000000000000000020202020202414C4C2A
S1130DE02049532046696E65004865617420446556
S1130DF07465637465640020202020202000536DF6
S1130E006F6B652500456E7465722050617373774E
S1130E106F7264002077726F6E6720506173732164
S1090E202100543D000016
S9030000FC
